:100000000C9485000C94A6000C94A6000C94A600F9
:100010000C94A6000C9452070C942D070C94A60087
:100020000C94A6000C94A6000C94A6000C94A600B8
:100030000C94A6000C94A6000C94A6000C94A600A8
:100040000C94A6000C94A6000C94A6000C94A60098
:100050000C94A6000C94A6000C94A6000C94A60088
:100060000C94A6000C94A6000C94A6000C94A60078
:100070000C94A6000C94A6000C94A6000C94A60068
:100080000C94A6000C94A6000C94A6000C94A60058
:100090000C94A6000C94A6000C94A6000C94A60048
:1000A0000C94A6000C94A6000C94A6000C94A60038
:1000B0000C94A6000C94A6000C94A6000C94A60028
:1000C0000C94A6000C94A6000C94A6000C94A60018
:1000D0000C94A6000C94A6000C94A6000C94A60008
:1000E0000C94A600A30343046A048D038D03D1047A
:1000F0009104DC03980398031C0411058D038D0300
:1001000038056F05A605A303DD0511241FBECFEF3B
:10011000D1E2DEBFCDBF00E00CBF12E0A0E0B2E054
:10012000ECE7F3E100E00BBF02C007900D92AE30A8
:10013000B107D9F712E0AEE0B2E001C01D92A433DE
:10014000B107E1F70E9498070C94BC090C940000D9
:1001500086B1886088B9089586B1877F88B9089587
:100160008093280160932A01089586E69EE0019716
:10017000F1F700004098419880E388B9429AEFEF88
:10018000F7E43197F1F700C000004298E6E6FEE0A0
:100190003197F1F700004098419888B9429AEFEF03
:1001A000F7E43197F1F700C000004298E6E6FEE080
:1001B0003197F1F700004098419888B9429A8FEF43
:1001C00097E40197F1F700C000004298E6E6FEE0F0
:1001D0003197F1F700004098419880E288B9429A3F
:1001E0008FEF97E40197F1F700C00000429808955F
:1001F00098B19F7098B998B1282F207F922B98B909
:1002000040984198429AEFEFF7E43197F1F700C038
:100210000000429898B19F7098B998B18295807FFC
:10022000892B88B940984198429A8FEF97E40197BB
:10023000F1F700C00000429808950E94B50086E6DC
:100240009EE00197F1F7000088E20E94F80081E04B
:100250000E94F80086E00E94F8008EE00E94F800FC
:1002600080E80E94F800089598B19F7098B998B1FD
:10027000282F207F922B98B9409A4198429AEFEF0D
:10028000F7E43197F1F700C00000429898B19F70F1
:1002900098B998B18295807F892B88B9409A419806
:1002A000429A8FEF97E40197F1F700C0000042985F
:1002B000089580E80E94F8000895CF93DF93EC0141
:1002C0008881882331F021960E9434018991882306
:1002D000D9F7DF91CF910895823079F0833018F407
:1002E0008130C9F405C0833069F08430A1F40FC0B7
:1002F000862F81580E94F8000895862F81540E940D
:10030000F8000895862F8D560E94F8000895862FD4
:100310008D520E94F80008950F931F93CF93DF939F
:100320008A01E901882311F0662319F40E9459011A
:1003300002C00E946C01C530D10571F4C80160E1B2
:1003400077E20E94A809CB01C09690932602809381
:1003500025020E94340103C0C430D105B9F4C8019C
:1003600068EE73E00E94A809CB01709328026093A5
:1003700027026AE070E00E94A809C09690933302B9
:10038000809332020E94340181E001C080E0C330DA
:10039000D10511F08130B1F4C80164E670E00E942B
:1003A000A809CB0170932802609327026AE070E0ED
:1003B0000E94A809C09690932F0280932E020E945B
:1003C000340181E0C230D10511F08130B1F42AE06E
:1003D00030E0C801B9010E94A809CB01709328023E
:1003E00060932702B9010E94A809C09690932C023D
:1003F00080932B020E94340181E0C130D10511F0BD
:10040000813061F4C8016AE070E00E94A809C096DA
:1004100090933102809330020E943401C630D1059E
:100420001CF085E40E943401DF91CF911F910F9160
:10043000089510BA11BA1092070110920801089598
:10044000EAE7F0E0108210927B0080E280937C006B
:1004500080E880BF86E880830895883018F098E0AF
:1004600090937B008770806280937C00EAE7F0E0E5
:10047000808180648083808184FFFDCF80917900BA
:10048000EAE7F0E090819061908310927B000895FC
:1004900084E00E942D0280932A0221E030E08D3713
:1004A00010F020E030E0822F932F089588E00E9422
:1004B0002D0280932D0221E030E08D3710F020E0F6
:1004C00030E0822F932F089580912202823448F0E9
:1004D00081E090E020912002223428F480E090E036
:1004E000089580E090E008950F931F93CF93DF93DA
:1004F00080912202823408F47EC0809120028234EE
:1005000008F479C0C8EAD0E0FE0119958FEF9FEF9B
:10051000A1E181509040A040E1F700C000000CEA4A
:1005200010E0F80119958FEF9FEFA1E18150904005
:10053000A040E1F700C00000FE0119958FEF9FEF8A
:10054000A1E181509040A040E1F700C00000F80117
:1005500019958FEF9FEFA1E181509040A040E1F706
:1005600000C00000FE0119958FEF9FEFA3E28150BC
:100570009040A040E1F700C00000F801199588EC18
:1005800090E068EC70E00E94B0000E94FF0581E0FE
:1005900090E090931F0280931E028091200285318B
:1005A00008F1809121028531E8F0809122028531A5
:1005B000C8F083E00E942D028093220282E00E9414
:1005C0002D028093210281E00E942D02809320025F
:1005D000853140F080912102853120F08091220206
:1005E000853138F78FEF9FEBA6E081509040A04017
:1005F000E1F700C00000DF91CF911F910F910895A6
:100600008FEF90E06FEF70E00E94B0000E94FF0556
:1006100081E090E090931F0280931E02809120025F
:10062000853108F1809121028531E8F08091220224
:100630008531C8F083E00E942D028093220282E07F
:100640000E942D028093210281E00E942D0280935E
:100650002002853140F080912102853120F0809187
:100660002202853138F708958FEF90E06FEF70E048
:100670000E94B0000E94FF0580912002853108F1A0
:10068000809121028531E8F0809122028531C8F005
:1006900083E00E942D028093220282E00E942D02BC
:1006A0008093210281E00E942D02809320028531F7
:1006B00040F080912102853120F080912202853125
:1006C00038F786E696E8A6E081509040A040E1F732
:1006D00008950E94FB050E94A8008FEF9FEFACE2F7
:1006E00081509040A040E1F700C000000E94AC00A3
:1006F00081E090E090931F0280931E020895FC0118
:100700003197E331F10508F05BC2EE58FF4FEE0F71
:10071000FF1F0590F491E02D19948FEF90E06FEF9B
:1007200070E00E94B0008DE490E00E94920608956F
:100730008FEF90E06FEF70E00E94B0008DE490E0EA
:100740000E94850608958FEF90E06FEF70E00E94A1
:10075000B0000E94FF0581E090E090931F0280931B
:100760001E0280912002853108F42AC28091210264
:10077000853108F425C280912202853108F420C217
:1007800083E00E942D028093220282E00E942D02CB
:100790008093210281E00E942D0280932002853106
:1007A00008F40EC280912102853108F409C28091BB
:1007B0002202853128F7089582E393EFA4E0815067
:1007C0009040A040E1F700C000C00E94FB058FEF01
:1007D0009FEFA1E181509040A040E1F700C00000F0
:1007E0000E94480281309105A1F4809114029091F9
:1007F0001502019690931502809314020E946903DA
:100800008FEF9FEFACE281509040A040E1F700C035
:1008100000000E9456028130910559F48091140223
:1008200090911502019690931502809314020E94F4
:1008300069030E943403089582E393EFA4E081509A
:100840009040A040E1F700C000C00E94FB058FEF80
:100850009FEFA1E181509040A040E1F700C000006F
:100860000E9456028130910559F4809114029091B2
:100870001502019690931502809314020E94690359
:100880000E943403089582E393EFA4E081509040E6
:10089000A040E1F700C000C00E94FB058FEF9FEF72
:1008A000A1E181509040A040E1F700C000000E940B
:1008B00048028130910559F48091120290911302FF
:1008C000019690931302809312020E9469030E9482
:1008D0003403089582E393EFA4E081509040A04058
:1008E000E1F700C000C00E94FB058FEF9FEFA1E180
:1008F00081509040A040E1F700C000000E944802F3
:100900008130910559F48091120290911302019661
:1009100090931302809312020E9469030E94340391
:10092000089582E393EFA4E081509040A040E1F766
:1009300000C000C00E94FB058FEF9FEFA1E1815036
:100940009040A040E1F700C000000E9448028130C2
:100950009105A1F480911202909113020196909357
:100960001302809312020E9469038FEF9FEFACE2A3
:1009700081509040A040E1F700C000000E94560264
:100980008130910559F480911202909113020196E1
:1009900090931302809312020E9469030E94340311
:1009A000089582E393EFA4E081509040A040E1F7E6
:1009B00000C000C00E94FB058FEF9FEFA1E18150B6
:1009C0009040A040E1F700C000000E944802813042
:1009D0009105A1F4809110029091110201969093DB
:1009E0001102809310020E9469038FEF9FEFACE227
:1009F00081509040A040E1F700C000000E945602E4
:100A00008130910559F48091100290911102019664
:100A100090931102809310020E9469030E94340394
:100A2000089582E393EFA4E081509040A040E1F765
:100A300000C000C00E94FB058FEF9FEFA1E1815035
:100A40009040A040E1F700C000000E9456028130B3
:100A5000910559F4809110029091110201969093A2
:100A60001102809310020E9469030E9434030895CA
:100A70000E94FB0580911402909115029C01215067
:100A8000304030931502209314021816190624F5ED
:100A90000E94A8008FEF9FEFACE281509040A040F1
:100AA000E1F700C000000E94AC008FEF9FEFACE2C6
:100AB00081509040A040E1F700C0000080911402F6
:100AC000909115029C0121503040309315022093E3
:100AD000140218161906E4F20E94000308950E94F9
:100AE000FB0580911002909111029C012150304031
:100AF00030931102209310021816190624F50E9453
:100B0000A8008FEF9FEFACE281509040A040E1F74A
:100B100000C000000E94AC008FEF9FEFACE281505C
:100B20009040A040E1F700C0000080911002909139
:100B300011029C0121503040309311022093100289
:100B400018161906E4F20E94000308950E94FB059E
:100B500080911202909113029C01215030403093F9
:100B60001302209312021816190624F50E94A800F9
:100B70008FEF9FEFACE281509040A040E1F700C0C2
:100B800000000E94AC008FEF9FEFACE281509040DC
:100B9000A040E1F700C00000809112029091130282
:100BA0009C012150304030931302209312021816FA
:100BB0001906E4F20E94000308950E94FB05FFCF8E
:100BC00008953B9A4398089581B18F6081B982B1AD
:100BD000807F82B9EAE0F1E0808188618083EBE088
:100BE000F1E0808188618083089592B1907F8F7059
:100BF000982B92B9089580E00E94F505089586E04B
:100C00000E94F505089589E00E94F505089585E0A4
:100C10000E94F50508958AE00E94F505089584E094
:100C20000E94F505089582E00E94F505089581E08F
:100C30000E94F505089588E00E94F50508956C98D6
:100C4000749A08956D98759A0895F894EAE6F0E01C
:100C5000808182608083EC9A78940895F894EAE623
:100C6000F0E0808188608083ED9A789408950F93F6
:100C70001F93CF93BC0180E090E00E941A0928E402
:100C800031EE42E850E40E9486080E94EE08DC0142
:100C9000CB01A0E0B0E01092160210921702109261
:100CA00018021092190210921A0210921B0210924E
:100CB0001C0210921D02F1E0C0E04091160250911A
:100CC0001702609118027091190200911A02109196
:100CD0001B0220911C0230911D02EF2F481759076B
:100CE0006A077B0708F4EC2FEE2349F44F2F08170F
:100CF00019072A073B0708F44C2F4423F1F20E94FE
:100D0000FB05CF911F910F910895CF93DF93EC01D5
:100D10000E941306CE01880F991F0E943706DF91AB
:100D2000CF910895CF93DF93EC010E940F06CE017F
:100D3000880F991F0E943706DF91CF910895BC015B
:100D400080E090E00E941A0925EE30ED4AEA50E476
:100D50000E9486080E94EE08462F572F682F792F91
:100D60001092160210921702109218021092190295
:100D70008091160290911702A0911802B091190269
:100D8000481759076A077B0798F70E94FB050895E3
:100D9000CF93DF93EC010E94FF05CE010E949F06D6
:100DA000DF91CF910895CF93DF93EC010E9403066A
:100DB000CE010E949F06DF91CF910895CF93DF93DC
:100DC000EC010E940706CE010E943706DF91CF9109
:100DD0000895CF93DF93EC010E940B06CE010E9491
:100DE0003706DF91CF910895CF93DF93EC010E94F6
:100DF0001706CE01880F991F0E943706DF91CF9109
:100E00000895CF93DF93EC010E941B06CE01880F5B
:100E1000991F0E943706DF91CF91089589EA809348
:100E200020018BE0809321018FEF809325011092A8
:100E30002401109229018093280110922B018093A4
:100E40002A0108950E9419020E94E4050E941F06CB
:100E50000E9422060E94E10508951F920F920FB68C
:100E60000F9211248F939F93AF93BF93809116029B
:100E700090911702A0911802B09119020196A11D3C
:100E8000B11D8093160290931702A0931802B0939D
:100E90001902BF91AF919F918F910F900FBE0F904C
:100EA0001F9018951F920F920FB60F9211248F93D7
:100EB0009F93AF93BF9380911A0290911B02A091D0
:100EC0001C02B0911D020196A11DB11D80931A0252
:100ED00090931B02A0931C02B0931D02BF91AF918F
:100EE0009F918F910F900FBE0F901F901895CF93E9
:100EF000DF93D82FC62F842F0E942D02482F809376
:100F000029028D2F6C2F50E023E030E00E948C01ED
:100F1000DF91CF910895F8940E9422070E94250640
:100F20000E942E060E940E070E94200278940895C7
:100F30000E948B070E94B5000E941D0183E00E9461
:100F40002D028093220282E00E942D0280932102D2
:100F500081E00E942D02809320024091220282E0D3
:100F600061E050E023E030E00E948C0140912102DA
:100F700082E064E050E023E030E00E948C01409188
:100F8000200282E069E050E023E030E00E948C0122
:100F90000E947402C0E0D0E083E00E942D028093A2
:100FA000220282E00E942D028093210281E00E94B1
:100FB0002D0280932002409114025091150281E08D
:100FC00061E023E030E00E948C01409110025091DA
:100FD000110281E064E023E030E00E948C01409146
:100FE00012025091130281E069E023E030E00E9498
:100FF0008C01609121026132D8F08091220282340A
:10100000B8F480912002823498F40E94FF058FEF9B
:101010006FEF0E94B00080911E0290911F028130FC
:10102000910509F04CC010921F0210921E0247C099
:101030004091200250E04F31510594F0862F90E00E
:101040008F3191056CF08091220290E08E319105F4
:101050003CF483EC63EC0E94B0000E941B062FC09E
:101060008091220290E08F3191057CF0262F30E0B4
:101070002F31310554F04E31510554F483EC63ECBB
:101080000E94B0000E9417061AC04E31510564F04C
:101090008E319105A4F46C3390F40E94FF0582ED2B
:1010A00069E40E94B0000BC08E31910544F06C33AE
:1010B00030F40E94FF0589E462ED0E94B000809147
:1010C000200290E08F3191050CF466CF80912102CF
:1010D00090E08F3191050CF45FCF8091220290E077
:1010E0008F3191050CF458CF80911E0290911F0210
:1010F000009709F051CF8FEF6FEF0E94B0000E9470
:10110000FF052196CE010E947F0346CF0CD0E6C09A
:10111000DED040F0D5D030F021F45F3F19F0C7C0E9
:10112000511110C1CAC0EBD098F39923C9F35523CC
:10113000B1F3951B550BBB27AA27621773078407CA
:1011400038F09F5F5F4F220F331F441FAA1FA9F380
:1011500033D00E2E3AF0E0E830D091505040E69572
:10116000001CCAF729D0FE2F27D0660F771F881FD3
:10117000BB1F261737074807AB07B0E809F0BB0BC2
:10118000802DBF01FF2793585F4F2AF09E3F5105E6
:1011900068F08DC0D7C05F3FECF3983EDCF38695D6
:1011A00077956795B795F7959F5FC9F7880F911D5C
:1011B0009695879597F90895E1E0660F771F881F48
:1011C000BB1F621773078407BA0720F0621B730BFB
:1011D000840BBA0BEE1F88F7E095089598D088F03D
:1011E0009F5790F0B92F9927B751A0F0D1F0660F13
:1011F000771F881F991F1AF0BA95C9F712C0B1302E
:1012000081F09FD0B1E008959CC0672F782F882788
:10121000B85F39F0B93FCCF3869577956795B3956C
:10122000D9F73EF490958095709561957F4F8F4FDB
:101230009F4F0895E89409C097FB3EF490958095E0
:10124000709561957F4F8F4F9F4F9923A9F0F92F8C
:1012500096E9BB279395F695879577956795B7950A
:10126000F111F8CFFAF4BB0F11F460FF1BC06F5FF0
:101270007F4F8F4F9F4F16C0882311F096E911C002
:10128000772321F09EE8872F762F05C0662371F023
:1012900096E8862F70E060E02AF09A95660F771F37
:1012A000881FDAF7880F9695879597F9089597F92B
:1012B0009F6780E870E060E008959FEF80EC0895FC
:1012C00000240A9416161706180609060895002425
:1012D0000A9412161306140605060895092E03949F
:1012E000000C11F4882352F0BB0F40F4BF2B11F413
:1012F00060FF04C06F5F7F4F8F4F9F4F089557FD72
:101300009058440F551F59F05F3F71F04795880F73
:1013100097FB991F61F09F3F79F08795089512160A
:1013200013061406551FF2CF4695F1DF08C01616B6
:1013300017061806991FF1CF869571056105089467
:101340000895E894BB2766277727CB0197F908957E
:10135000AA1BBB1B51E107C0AA1FBB1FA617B707DB
:1013600010F0A61BB70B881F991F5A95A9F78095F7
:0C1370009095BC01CD010895F894FFCFCA
:0E137C007D1E004D004900D200FF006E0000F3
:00000001FF
